:100000000C942A000C943C000C943C000C943E0090
:100010000C943C000C943C000C943C000C943C0070
:100020000C943C000C943C000C943C000C943C0060
:100030000C943C000C943C000C943C000C943C0050
:100040000C943C000C943C000C943C000C943C0040
:100050000C943C0011241FBECFE5D8E0DEBFCDBF1D
:1000600020E0A0E6B0E001C01D92A136B207E1F7A2
:100070000E9454000C94EA000C9400001F920F920E
:100080000FB60F9211248F9380916000811104C0EC
:1000900081E08093600002C0109260008F910F9009
:1000A0000FBE0F901F901895CF93DF93CDB7DEB79B
:1000B00028970FB6F894DEBF0FBECDBF80E884BF8F
:1000C00084BF8FEF84BB81BB1ABA90E29BBF94B709
:1000D0009F7B94BF789489839BEF9A839DE79B8352
:1000E0001C821D829FE79E838F838887A0E080917A
:1000F000600081112BC08A2F90E020E030E022C008
:1001000041E050E0022E02C0440F551F0A94E2F76E
:1001100045BBE1E0F0E0EC0FFD1FE80FF91F408167
:1001200042BB019687709078992324F40197886FD9
:100130009F6F01962F5F3F4FEBEDF5E03197F1F7A1
:1001400000C0000028303105DCF2D1CF60E070E063
:100150002CC08A2F90E020E030E022C041E050E047
:10016000022E02C0440F551F0A94E2F745BBE1E09E
:10017000F0E0EC0FFD1FE80FF91F408142BB019634
:1001800087709078992324F40197886F9F6F019668
:100190002F5F3F4FE3EFF1E03197F1F700C0000030
:1001A00028303105DCF26F5F7F4F643171058CF2CE
:1001B00080916000882309F49ACF8A2F90E00196FD
:1001C00087709078992324F40197886F9F6F019628
:0801D000A82FBCCFF894FFCF6B
:00000001FF
